:020000040000FA
:1000000058020010E1000000E5000000E7000000D9
:10001000E9000000EB000000ED000000000000001F
:10002000000000000000000000000000EF000000E1
:10003000F100000000000000F3000000F5000000E7
:10004000F7000000F7000000F7000000F7000000D4
:10005000F7000000F7000000F7000000F7000000C4
:10006000F7000000F7000000F7000000F7000000B4
:10007000F7000000F7000000F7000000F7000000A4
:10008000F7000000F7000000F7000000F700000094
:1000900011030000F7000000F7000000F700000067
:1000A000F7000000F7000000F7000000F700000074
:1000B000F7000000F7000000F7000000F700000064
:1000C000F7000000F7000000F7000000DFF80CD098
:1000D00000F014F800480047810D0000580200109D
:1000E00005480047FEE7FEE7FEE7FEE7FEE7FEE71E
:1000F000FEE7FEE7FEE7FEE7CD000000064C074DF9
:1001000006E0E06840F0010394E8070098471034E7
:10011000AC42F6D3FFF7DEFFE42E0000042F000010
:1001200000B500F025F900F041F900BD70B50024DC
:10013000002500BF53E000204949088000244AE020
:10014000002048490860012000F0DAF80120464903
:10015000C1F88C0200F0D4F8444800784FF47F4195
:1001600001EA00204249088000203F49C1F88C0282
:10017000012000F0C5F801203A49086000F0C0F8FD
:100180003A4800783A4909880843394908800846BE
:10019000008800F0AFFD00F017F90646A9B2A0B242
:1001A00000F0E0FA00F03EFB3248007820B9304819
:1001B000008800F0F1FA0CE01EB900202C490880FC
:1001C00003E04FF6FA702A4908802948008800F0B9
:1001D000E3FA601C04B2F02CB2DB681C05B2B5F582
:1001E000A07FA8DD23480078012803D10020214901
:1001F000087002E001201F49087000BF0020194963
:100200000839086000BF00201B4908800DE000206D
:100210001449086000BF01201349C1F88C0200BFD7
:1002200015480088401C144908801348008880281D
:10023000EDDB01200B490839086000BF00200A49A6
:10024000C1F8880200BFC82000F05AF80120054913
:10025000091F086000BF00200849087000BF70BD7A
:100260000C0000108C0238230000382354C00920F1
:10027000040000100E000010060000101200001014
:1002800010B5002018490860012000F039F801205D
:100290001649C1F8880200F033F800201249091FFE
:1002A0000860012000F02CF800201049C1F88C02F1
:1002B000012000F025F801200B49091D086000F01D
:1002C0001FF800200949C1F88C02012000F018F83D
:1002D00001200649C1F88C02C82000F011F8012065
:1002E0000249C1F8840210BD880238230000382377
:1002F00000BF011EA0F10100FBD17047FFFFFFFF0F
:1003000000BF011EA0F1010290B2FAD170470000B7
:1003100004201349086013480078022804DA1148C1
:100320000078401C0F4908700E480078012808D159
:100330000D49086000BF01200C49C1F8940200BFBC
:100340000CE008480078022808D10020064908601F
:1003500000BF00200549C1F8940200BF70470000AB
:1003600040C10F40120000109002382300003823D3
:100370000B48006940F08070094908610420094970
:10038000086000200849C1F84C0114200121814077
:100390004209920002F1E022C2F8001100BF70474A
:1003A00000C0024048C10F4000C00F400548006C2B
:1003B00020F0FF00034908640846006840F03E0052
:1003C0000860704700C00920F0B50026002500270E
:1003D000002409E02146022000F0D6FA1949095DFF
:1003E00001FB0077601C04B2082CF3DB08240BE04F
:1003F000A4F1080001B2022000F0C6FA1149095D1B
:1004000001FB0055601C04B2102CF1DB10240BE042
:10041000A4F1100001B2022000F0B6FA0949095D0A
:1004200001FB0066601C04B2182CF1DBBE2E07DD58
:10043000142D05DD552F03DD962D01DA0120F0BDC9
:100440000020FCE734000010F0B50C4E07460024F5
:100450003088718801FB00F52146204600F082F9C2
:10046000B07900F0CBF9002D98BFF0BD384600F010
:1004700093F9641CA542F9D8F0BD00004C000010AF
:10048000F0B5B148016841F480610160D0F8E41032
:1004900041F40011C0F8E410AC48016821F47C215B
:1004A0000160016841F428210160A949C7220A605E
:1004B00002220A614A60A74A116A41F4804111622E
:1004C00081688160816C8164116A41F4004111622C
:1004D00081688160816C8164116A41F480311162AC
:1004E000C168C160C16CC1644FF48043D3639A4852
:1004F0000146491EB1F1FF3FFBDC9363401EB0F1A2
:10050000FF3FFBDC954DF02028804FF4A070688001
:100510002C20A8712A20E8712B202872CB2000F013
:100520006DF9392000F056F92C2000F053F9002025
:1005300000F050F9342000F04DF9022000F04AF9A3
:10054000CF2000F05BF9002000F044F9C12000F05A
:1005500041F9302000F03EF9E82000F04FF9852005
:1005600000F038F9002000F035F9782000F032F979
:10057000EA2000F043F9002000F02CF9002000F000
:1005800029F9ED2000F03AF9642000F023F9032066
:1005900000F020F9122000F01DF9812000F01AF976
:1005A000F72000F02BF9202000F014F9C02000F013
:1005B00025F9232000F00EF9C12000F01FF91020CA
:1005C00000F008F9C52000F019F93E2000F002F90A
:1005D000282000F0FFF8C72000F010F9862000F076
:1005E000F9F8362000F00AF9482000F0F3F83A2034
:1005F00000F004F9552000F0EDF8B12000F0FEF80D
:10060000002000F0E7F8182000F0E4F8B62000F031
:10061000F5F8082000F0DEF8822000F0DBF8272053
:1006200000F0D8F8F22000F0E9F8002000F0D2F84D
:10063000262000F0E3F8012000F0CCF8E02000F0E4
:10064000DDF80F2000F0C6F8312000F0C3F82B20B1
:1006500000F0C0F80C2000F0BDF80E2000F0BAF851
:10066000082000F0B7F84E2000F0B4F8F12000F0B8
:10067000B1F8372000F0AEF8072000F0ABF81020FA
:1006800000F0A8F8032000F0A5F80E2000F0A2F872
:10069000092000F09FF8002000F09CF8E12000F015
:1006A000ADF8002000F096F80E2000F093F814202A
:1006B00000F090F8032000F08DF8112000F08AF887
:1006C000072000F087F8312000F084F8C12000F006
:1006D00081F8482000F07EF8082000F07BF80F2019
:1006E00000F078F80C2000F075F8312000F072F876
:1006F000362000F06FF80F2000F06CF8112000F0A9
:100700007DF81748401EB0F1FF3FFBDC292000F0C8
:1007100075F82C2000F072F828886988002401FB05
:1007200000F64FF6FF772146204600F01BF8A87927
:1007300000F064F8002E98BFF0BD384600F02CF8A9
:10074000641CA642F9D8F0BDC4C00F4000C00240EE
:100750000000034000C00920FFFF4F004C000010C4
:10076000FFFFDF0170B50B4E05460C46F07900F037
:1007700045F8280A00F02EF8E8B200F02BF8307A9D
:1007800000F03CF8200A00F025F8E0B2BDE8704027
:1007900000F020B84C0000100C4B4FF4803CC3F824
:1007A0003CC04FF4004199630949020A8A60CA6853
:1007B00012F0040FFBD08A68C0B28860C86810F0DD
:1007C000040FFBD08868C3F838C0704700C0092008
:1007D00000000340074A4FF48033D36359109163FC
:1007E00005498860C86810F0040FFBD088689363DF
:1007F0007047000000C0092000000340074A4FF482
:100800008033D3635910D163C1B205488160C16898
:1008100011F0040FFBD080689363704700C009207B
:100820000000034001488079FFF7E8BF4C0000104A
:100830002DE9FC5F04460D4616461F46A0191FFA17
:1008400080F807EB470028441FFA80F901A903202C
:1008500000F008FB83469DF8040000F0C000019002
:100860006946322000F0FEFA83469DF8000000F051
:10087000C000009008F007009DF8001041EAC00099
:1008800004F0070140EA010A5146322000F0A8FBBB
:100890008346C4F3C70A5146172000F0A1FB8346E4
:1008A000C8F3C70A5146182000F09AFB834609F0A6
:1008B00003009DF8041041EA800005F0030140EABE
:1008C000010A5146032000F08BFB8346C5F3870ADB
:1008D0005146192000F084FB8346C9F3870A51462C
:1008E0001A2000F07DFB8346BDE8FC9F7CB500200C
:1008F0000190009000F056F800F03AF88025294663
:10090000122000F06DFB08B900207CBD01A9122067
:1009100000F0A8FA01A90A2000F0A4FA9DF804004A
:10092000762801D00020F0E769460B2000F09AFA03
:100930009DF80000732801D00020E6E700240DE0B8
:100940000A4A02EBC4021179084A12F8340000F096
:1009500047FB08B90020D8E7601CC4B2B22CEFDB1B
:10096000C82000F04BFA0120CFE700003010000053
:100970000448007800F0EF000249413981F8410055
:100980007047000041C0092010B502460124002331
:1009900000BF02E05443581C03B28B42FADB20B282
:1009A00010BD00000348006840F440300149086071
:1009B0007047000000C009200348006820F4803020
:1009C000014908607047000000C009200348006822
:1009D00040F48030014908607047000000C00920E1
:1009E00010B50023FFF7E8FF4FF4FA70FFF780FC23
:1009F00008241BE04FF4FA70FFF77AFC01200E493F
:100A000008604FF4FA70FFF773FC5806030E0B48AA
:100A1000D0F8C00208B1581CC3B2002006490860D3
:100A20004FF4FA70FFF764FC601EC4B2002CE1DCE6
:100A3000FFF7CCFF184610BDC4023823000038234E
:100A400030B50546002321E005FA03F000F08000F0
:100A500018B101202049086002E000201E4908600A
:100A60004FF4FA70FFF744FC01201B49091D086090
:100A70004FF4FA70FFF73CFC00201849C1F8C4029B
:100A80004FF4FA70FFF734FC581CC3B2082BDBDBC1
:100A90006420FFF72DFCFFF78FFF4FF4FA70FFF78C
:100AA00027FC01200C49091D08606420FFF720FC89
:100AB0000A48D0F8C00208B1002400E00124002058
:100AC0000549091D08604FF4FA70FFF711FCFFF7A4
:100AD0007DFF204630BD0000C002382300003823CF
:100AE00020207549086000BF7348006800F040008E
:100AF0000028F9D0032070499C3908604FF4001099
:100B00006E49C1F8A80104206B490C31086001202E
:100B10006949943908606A4868498431086001204D
:100B2000091F0860AA2065498C3108605520634977
:100B3000C1F88C0000BF61488830006800F0806018
:100B40000028F8D003205D4980310860AA205B4965
:100B5000C1F88C00552059498C3108600020564955
:100B60009839086057485549C431086000205349F6
:100B7000C1F8C801514888300068C0F301600328FB
:100B800060D14D489438006800F0030030B101286E
:100B900020D0022839D0032853D100E000BF4748B5
:100BA00088300068C0F30E00401C400046494843AE
:100BB0004249D1F88810C1F30741491CB0FBF1F15B
:100BC0003D489C380068C0B2401CB1FBF0F03F4982
:100BD000086036E0394888300068C0F30E00401CD9
:100BE00040003B4948433549D1F88810C1F30741DB
:100BF000491CB0FBF1F130489C380068C0B2401C81
:100C0000B1FBF0F0314908601BE02C4888300068E7
:100C1000C0F30E00401C40004FF4FA4148432749FE
:100C2000D1F88810C1F30741491CB0FBF1F122480B
:100C30009C380068C0B2401CB1FBF0F0234908604A
:100C400000BF30E01C489438006800F0030030B169
:100C5000012810D0022819D0032823D100E000BFBA
:100C600015489C380068C0B2401C1749B1FBF0F031
:100C70001649086016E010489C380068C0B2401C55
:100C80001349B1FBF0F0114908600BE00A489C38A9
:100C90000068C0B2401C4FF4FA41B1FBF0F00B49C0
:100CA000086000BF00BF0548006820F4704040F4B1
:100CB0008040024908607047A0C10F4000C00F404B
:100CC00063000500DE87680400093D000000001095
:100CD000001BB70002E008C8121F08C1002AFAD1A1
:100CE00070477047002001E001C1121F002AFBD1AC
:100CF000704700000146002000BF3AE005280BD1F4
:100D00001E4A12781D4B5A711A4652789A711A4629
:100D10009278DA71082017E00E2808D1174A127A63
:100D2000164B9A731A46527ADA7310200CE0152883
:100D30000AD1124A127C114B5A751A46527C9A7586
:100D40001A46927CDA7516E00A4601EBD2735B1004
:100D5000A1EB4303012B03D10122084B1A5402E0FB
:100D60000022064B1A540A4601EBD2735910421C5A
:100D700010B21828C2DB00BF70470000340000101A
:100D8000FFF7AEFEFFF77CFB4FF6E070FFF75CFB72
:100D900064215F2000F09AF8FFF7C2F9FFF770FABC
:100DA00003E0FFF7A3FD00B100E0FAE700BF114840
:100DB00000210AE0002205E0002300E05B1C0A2B72
:100DC000FCD3521C002AF7D0491C8142F2D300BF49
:100DD0004FF420734FF4F07200214FF48870FFF746
:100DE00027FD05E004480078022801D1FFF79EF9AD
:100DF000F8E70000404B4C001200001009E0002111
:100E000001E04A1C91B242F210729142F9DB421E9B
:100E100090B20028F3D1704700B501200F49086057
:100E20004FF4FA70FFF764FA01200D49C1F8C402CB
:100E30004FF4FA70FFF75CFA00200849091D0860BA
:100E40004FF4FA70FFF754FA00200549C1F8C002C8
:100E50004FF4FA70FFF74CFA00BD0000C0023823CF
:100E60000000382370B505460C4600F079F84220A2
:100E7000FFF7E6FD18B900F097F8002070BD642078
:100E8000FFF736FA2846FFF7DBFD18B900F08CF8BB
:100E90000020F3E700F088F86420FFF729FA00F05B
:100EA0005FF84320FFF7CCFD18B900F07DF8002073
:100EB000E4E76420FFF71CFAFFF792FD2070FFF7CC
:100EC000ABFF00F071F80120D8E700002DE9F84FE2
:100ED00000240646204FDFF88490000A8A46254603
:100EE0004FF6FF7BCDF800000AEB05001FFA80F8F3
:100EF000F879FFF783FC0098FFF76CFCF0B2FFF77E
:100F000069FC387AFFF77AFC4FEA1820FFF762FC99
:100F100008F0FF00FFF75EFCB879FFF76FFC4FF0B9
:100F2000000800BF09EB440019F8141040780BEAE0
:100F300000200843FFF730FC601C84B208F1010078
:100F40001FFA80F8B8F1280FECD3681C85B2282D61
:100F5000CAD3BDE8F88F00004C0000100018000054
:100F600000B501200E4908604FF49670FFF7C0F9F4
:100F700001200C49C1F8C4024FF49670FFF7B8F98C
:100F80000020074908604FF49670FFF7B1F9002080
:100F90000449C1F8C4024FF49670FFF7A9F900BDE7
:100FA000C00238230000382300B500200A49086039
:100FB0004FF4FA70FFF79CF901200849C1F8C40208
:100FC0004FF4FA70FFF794F90120034908604FF4D9
:100FD000FA70FFF78DF900BDC002382300003823F6
:100FE00070B505460C46FFF7BBFF4220FFF728FD12
:100FF00018B9FFF7D9FF002070BD6420FFF778F91A
:101000002846FFF71DFD18B9FFF7CEFF0020F3E7D4
:101010006420FFF76DF92046FFF712FD18B9FFF7BE
:10102000C3FF0020E8E7FFF7BFFF0120E4E700006F
:101030003A00000004000000400000001000000022
:1010400012000000140000003200000080000000C8
:101050001700000016000000180000000400000047
:1010600019000000020000001A0000007B000000D0
:10107000030000000A0000000C0000000C0000004B
:101080003E00000000000000700000003A00000078
:101090007100000035000000720000000100000037
:1010A00073000000F0000000A20000000200000039
:1010B00011000000010000007A0000002000000084
:1010C0007B0000001C0000007C00000028000000E5
:1010D0007D0000003C0000007E0000005500000084
:1010E0007F00000068000000800000007600000023
:1010F00081000000800000008200000088000000E5
:10110000830000008F0000008400000096000000B3
:1011100085000000A300000086000000AF00000072
:1011200087000000C400000088000000D700000015
:1011300089000000E800000013000000E00000004B
:10114000000000000000000010000000000000008F
:101150000D00000000000000140000001A00000054
:10116000A500000005000000AB0000000700000023
:10117000240000007500000025000000630000004E
:1011800026000000A50000009F000000780000007D
:10119000A000000068000000A100000003000000A3
:1011A000A6000000DF000000A7000000DF00000034
:1011B000A8000000F0000000A9000000900000005E
:1011C000AA0000009400000013000000E5000000E9
:1011D0000E000000610000000F0000004B00000046
:1011E00016000000020000001E00000007000000C2
:1011F0002100000002000000220000009100000019
:101200002900000007000000330000000B00000070
:10121000350000000B000000370000001D0000003A
:101220003800000071000000390000002A000000B2
:101230003C000000780000004D000000400000006D
:101240004E00000020000000690000005D0000006A
:101250006B000000C00000007400000019000000D6
:101260008D0000004F0000008E0000000000000014
:101270008F0000000000000090000000000000004F
:10128000910000000000000092000000000000003B
:1012900096000000000000009A000000800000009E
:1012A000B000000084000000B10000000C0000004D
:1012B000B20000000E000000B30000008200000039
:1012C000B80000000A000000430000001400000005
:1012D00044000000F0000000450000003400000061
:1012E00046000000580000004700000028000000F1
:1012F000480000003A00000059000000880000008B
:101300005A000000880000005B000000440000005C
:101310005C000000670000005D0000004900000064
:101320005E0000000E0000006400000004000000E9
:1013300065000000200000006600000005000000BD
:101340009400000004000000950000000800000068
:101350006C0000000A0000006D0000005500000055
:101360006E000000110000006F0000009F000000F0
:101370006A00000040000000010000008000000042
:10138000020000008000000013000000E7000000E1
:1013900015000000000000004F0000008000000069
:1013A000500000008000000051000000000000001C
:1013B0005200000022000000530000005E00000008
:1013C00054000000800000005500000008000000EC
:1013D0005600000060000000570000009000000070
:1013E000580000009E0000004100000008000000BE
:1013F0003F0000000A00000075000000050000002A
:1014000076000000E10000004C0000000F0000002A
:10141000770000000A0000003D000000C20000004C
:101420004B00000009000000C9000000600000003F
:1014300041000000380000003400000011000000EE
:101440003B00000002000000A40000008900000032
:10145000960000000000000097000000300000002F
:1014600098000000200000009900000030000000FB
:101470009A000000840000009B000000290000008A
:101480009C000000030000009D0000004C000000D4
:101490009E0000003F0000007800000004000000F3
:1014A0007900000001000000C8000000F00000000A
:1014B000790000000F000000C800000000000000DC
:1014C0007900000010000000C80000007E0000004D
:1014D000790000000A000000C80000008000000041
:1014E000790000000B000000C800000001000000AF
:1014F000790000000C000000C80000000F00000090
:10150000790000000D000000C8000000200000006D
:101510007900000009000000C80000008000000001
:101520007900000002000000C8000000C0000000B8
:101530007900000003000000C80000004000000027
:101540007900000005000000C80000003000000025
:1015500069000000AA00000009000000020000006D
:101560003B000000420000002D00000001000000D0
:10157000000000000000000000000000000000006B
:10158000000000000000000000000000000000005B
:10159000000000000000000000000000000000004B
:1015A000000000000000000000000000000000003B
:1015B000000000000000000000000000000000002B
:1015C00000000000000000000040000030C00100EA
:1015D000E0E00100C0E10000C061001880F1FF3FC1
:1015E00000700018003E001804DA01181CEE011803
:1015F000386F601878F7FF1870318618B019061820
:101600008009061880058619C0FEFF1BC000061A57
:10161000C0306618E070E6197C30E6187030E618C5
:101620006030E61870F8FF1C7030E01C7000001C81
:101630007000F01F7000800F000000070000000025
:10164000000000000000000000008000000EC0014B
:1016500000FEFF03000EC001000EC001000EC0011D
:1016600000FEFF01000EC001000EC001000EC0010F
:1016700000FEFF01000EC001000640000000000057
:1016800030700C18F0FFFC3F70700C1870700C1864
:1016900070700C1870700C18F07FFC1F70700C18B4
:1016A00070700C1870700C1870700C1870700C182A
:1016B000F07FFC1F70700C18100004000000000088
:1016C000000000000000000000003000000070007A
:1016D000001C7000FC1F7000008C7100208C7700D3
:1016E000E08C7304F08E731E708EF31F708EFB0CF3
:1016F000708E7F0C70FE730C3086730C3086730C0A
:101700003096730CF8BF730C38F8730C00B8730C78
:1017100000B8F30F00BE7306E09B73307E98733001
:101720001C981330089C0330009C0330008C037815
:10173000E00FFF7F800700000003000000000000B2
:10174000800080008000FC1F40004000FF7F2000E0
:101750001000F00F00080004600280010002000485
:10176000000104020800E83F01020202020208022E
:10177000C83F04020702040204020402F47F0000CE
:101780000000F80F08080808F80F08080808F80F04
:101790002002222224222812280A2002FF7F000091
:1017A0000000FC1F0000000000000000FF7F800020
:1017B000800088088810842082408140A00040007A
:1017C000400080008000FF7F200020002000E00F0C
:1017D0002008200820081008100808080405020244
:1017E0008000FE3F02202000FF7F10047802C0032B
:1017F0003C1C8000FF7FA00290048C188360800056
:10180000FFFFFFFFFFFFFFFFFFFFFFFFFFFFFFFFE8
:10181000FFFFFFFFFFFFFFFFFFFFFFFFBEF77DEFB3
:10182000BAD6B6B5F39CB294B39CB29434A5F7BDC6
:10183000FBDE7DEFFFFFFFFFFFFFFFFFFFFFFFFF6F
:10184000FFFFFFFFFFFFFFFFFFFFFFFFFFFFFFFFA8
:10185000FFFFFFFFFFFFFFFFFFFFFFFFFFFFFFFF98
:10186000FFFFFFFFFFFFFFFFBEF7FBDEF39CCB5A3E
:10187000C7390421821042104210410883184529BB
:10188000C7390C6375AD3CE7BEF7FFFFFFFFFFFFF5
:10189000FFFFFFFFFFFFFFFFFFFFFFFFFFFFFFFF58
:1018A000FFFFFFFFFFFFFFFFFFFFFFFFFFFFFFFF48
:1018B000FFFFFFFFFFFF3CE7B2940842C31882100E
:1018C0000421452986318631863186314529042116
:1018D00082104108C3180842F39C3CE7FFFFFFFF5A
:1018E000FFFFFFFFFFFFFFFFFFFFFFFFFFFFFFFF08
:1018F000FFFFFFFFFFFFFFFFFFFFFFFFFFFFFFFFF8
:10190000FFFFFFFFFBDE0C63C318C3184529C7396F
:10191000084208420842084208420842C739C7390B
:1019200086318631042141088210CB5ABAD6FFFF96
:10193000FFFFFFFFFFFFFFFFFFFFFFFFFFFFFFFFB7
:10194000FFFFFFFFFFFFFFFFFFFFFFFFFFFFFFFFA7
:10195000FFFFFBDECB5A82104529C73908420842F7
:10196000094A494A494A494A494A494A0842C739FB
:10197000C739C7398631452983180000C84138C6A0
:10198000FFFFFFFFFFFFFFFFFFFFFFFFFFFFFFFF67
:10199000FFFFFFFFFFFFFFFFFFFFFFFFFFFFFFFF57
:1019A0007DEF8E7382104529C7390842094A8A5251
:1019B0003084CF7B8A52494A4A52494ACB5ACF7B1C
:1019C0000C630842C73986314529C3180000494ACB
:1019D000BAD6FFFFFFFFFFFFFFFFFFFFFFFFFFFF85
:1019E000FFFFFFFFFFFFFFFFFFFFFFFFFFFFFFFF07
:1019F000F39CC3180421C7390842494A494A7294E2
:101A00007DEF7DEFB2944A52494A8A5275ADBEF7D6
:101A1000BAD64D6BC739C73986314529C318410835
:101A2000CF7B7CE7FFFFFFFFFFFFFFFFFFFFFFFF15
:101A3000FFFFFFFFFFFFFFFFFFFFFFFFFFFFBAD624
:101A400008428210C7390842494A494A8E73FBDE70
:101A5000FFFFBEF7BAD68E73084230843CE77DEFB5
:101A6000FFFFB6B5494AC7398631452904214108E7
:101A70004529B6B5FFFFFFFFFFFFFFFFFFFFFFFF99
:101A8000FFFFFFFFFFFFFFFFFFFFFFFFBEF7718CB0
:101A9000410845290842494A494A4A52B294BEF788
:101AA000BEF7B294CF7BCF7B494AB6B5F39C0C63AB
:101AB00038C6BAD60C638739C73986314529C31869
:101AC000410830847DEFFFFFFFFFFFFFFFFFFFFFB7
:101AD000FFFFFFFFFFFFFFFFFFFFFFFF3CE7CB5ACA
:101AE0004108C7390842494A4A528A52F39CFFFFCB
:101AF0007DEFC739C3180C63CB5AB6B5B294CB5A35
:101B000075ADFAD64D6B8739C73986314529042121
:101B100041088A5279CEFFFFFFFFFFFFFFFFFFFF63
:101B2000FFFFFFFFFFFFFFFFFFFFFFFF38C686310C
:101B30000421C841494A494A4A52494AB18CBEF730
:101B4000BEF7B294CF7BCF7B494A74A57DEF7CE78B
:101B5000BEF779CE0C63C739C739863145290421D0
:101B60008210452975ADBEF7FFFFFFFFFFFFFFFFA6
:101B7000FFFFFFFFFFFFFFFFFFFFFFFF34A5821006
:101B800086310842494A494A8A52494A4D6BBAD677
:101B9000FFFFFFFF79CE0D63C739CF7B7DEFFFFFDE
:101BA000FFFF75AD08428631C73986314529452981
:101BB000C318C318B2947DEFFFFFFFFFFFFFFFFFC5
:101BC000FFFFFFFFFFFFFFFFFFFFBEF7B28C4108E3
:101BD000C7390842494A494A8A528A524A4AD07BFE
:101BE0007AC67BBE906BC9398831C939B384BBC60C
:101BF000F8B5CC5A8631C739C739863145294529C8
:101C0000C420410830843CE7FFFFFFFFFFFFFFFFD8
:101C1000FFFFFFFFFFFFFFFFFFFF3CE78A4AC31004
:101C2000C7390842494A494A4A4A4A42093A084A8F
:101C3000096B497BC67A05834683C57AC672097BE0
:101C4000485A873188218829863186314529452996
:101C5000042141084A4ABAD6FFFFFFFFFFFFFFFFFA
:101C6000FFFFFFFFFFFFFFFFFFFFF7C582500541AA
:101C7000C7290842494A4A42494A097B889BC6B358
:101C800021D4A0DCE1E461ED61ED21EDA0E420DCF4
:101C900080CB43ABC482065A4721462945290429F3
:101CA000041982108218F39C7DEFFFFFFFFFFFFFF6
:101CB000FFFFFFFFFFFFFFFF7DEF4D9300A082B806
:101CC000C7310932494A867A43C36BEDF4F6EBFD1E
:101CD00020FD20FD60FDA0FDA0FD60FD60FD20FD5C
:101CE000E0FCA0FC60F4C1DB839AC54945290419D6
:101CF000C42082380050CB6ABAD6FFFFFFFFFFFF37
:101D0000FFFFFFFFFFFFFFFFFBEE04A100C000F09D
:101D1000C3A0C8414942059B20FCA4FC69FDE8FD25
:101D200063FD20FD60FD60FD60FD20FD20FDE0FC09
:101D3000E0FCA0FC60FC20FC41D3C5494519C43837
:101D4000826841880070495A79CEFFFFFFFFFFFF8C
:101D5000FFFFFFFFFFFFFFFFFBF682C000D086C141
:101D600046F141C8457989528862866AC67AC4BB01
:101D7000E1FC60FD60FDA0FDA0FD60FD60FDE0FCFC
:101D800060E403938472446AC5414529C35841A85D
:101D9000409800B000600C6B79CEFFFFFFFFFFFFA3
:101DA000FFFFFFFFFFFF7DEFCE83828800F8C4D8DE
:101DB0000CF38AFA82E882B04569C7510842083AB2
:101DC000865A839BA2BC22CD21CDA1C422B4C47A61
:101DD000063A862945290531C450419000C000A823
:101DE00000A000A800304A4ABAD6FFFFFFFFFFFF5D
:101DF000FFFFFFFF7DEF8E73C318053982A800F83F
:101E0000C3F84DFB4DFBC7F9C3F082D8C3B00481C2
:101E100045614651864986494641454145414541CE
:101E200005490461829041B000D000C800A800A814
:101E300000B8415882108210B294BEF7FFFFFFFF36
:101E4000FFFFBEF7CF7B82100421862986410499CB
:101E500040E841F886F9CBFA49FA82F800F800F038
:101E600000E841D841D041C041C041C041C041C853
:101E700000D000E000E000D800D000B800A8418801
:101E80008248821082100000452979CEFFFFFFFFB3
:101E9000BEF7F39C8210C31845298631C731307CC8
:101EA000F3DC86E100F000F841F841F800F800F8B2
:101EB00000F800F800F800F800F800F800F800F862
:101EC00000E800E000E000D800C841A08A9A0C6356
:101ED000041182108210410800004D6B7DEFFFFF5E
:101EE000FBDE08424210452986318631494A38BE18
:101EF000FFFF38D686A900C800E000F000F800F81F
:101F000000F800F800F800F800F800F800F000F021
:101F100000E800E000D0C3988A8AB2A4BAC6F7B538
:101F2000084241088210410800004529F7BDFFFF23
:101F3000718C410804214529863186310C633CE7C8
:101F4000FFFF79D646B900E042C882A882B041D8E6
:101F500082E882F041E841E841E841F041E841D8B7
:101F600004C108924D8B34A5FBC6FBD6BACE3CE724
:101F70003084C3184108410800004108CF7B7DEF41
:101F8000494A000004214529463186313084FFFF4B
:101F9000FFF7F7DD09DA83F801F042C08298499A29
:101FA000F3B4F3CC71BC8EBB8EBB30BC71BCF3BC44
:101FB000B6BDFBCEBEE77DE73BDFBAD679CEFBDE12
:101FC00075AD86314108410800000000494AFBDE3A
:101FD000042141080421452945298739B294FFFF8E
:101FE000BEF734DD0CEB09FA00F001D800D88BD233
:101FF0007DE7FFFFFFFFFFFFFFFFFFFFFFFFFFFF8B
:10200000FFFFBEFF7DEFFBDEFBDEBAD679CEBAD690
:1020100078C6C7390000410800000000C73979CEF2
:1020200000008210C318042105298631B39CFFFFEC
:10203000FFF775DDC7E9C7F901F801F000E849E2EB
:10204000FBEEFFFFFFFFFFFFFFFFFFFFFFFFFFFFB5
:10205000FFFFBEF77DEFFBDEFBDEBAD679CEBAD648
:10206000B9CE08420000000000000000C73938C6A1
:102070000000821082100421042145293084FFFFD2
:10208000FFFF38DEC4D000F001F800F800F008D2FD
:10209000FBE6FFFFFFFFFFFFFFFFFFFFFFFFFFFF6D
:1020A000FFFFBEF77DEFFBDEBAD679CE79CEBAD68A
:1020B00079CEC7394108000000000000863138C6DB
:1020C00000000000C318CB5A8631C318CB5A7DEFED
:1020D000FFFF7DEFCFBBC3B041D041D082B84DB33D
:1020E0007DE7FFFFFFFFFFFFFFFFFFFFFFFFFFFF9A
:1020F000BEF7BEF73DEFFBDEBAD679CE79CEFAD683
:10210000F7BD04218631042100000000863138C665
:102110008631C318CB5A75ADCF7B41088631F7BDE8
:10212000FFFFFFFFBEEF74B5309C309C72A4BBD69E
:10213000FFFFFFFFFFFFFFFFFFFFFFFFFFFFFFFFAF
:10214000BEF77DEF3CE7FBDEBAD679CE79CE3CE731
:10215000718C81080C63CF7B821000008A5238C6D4
:1021600075AD718CB6B53CE7FBDEC7390000CF73A7
:10217000FFFFFFFFFFFFFFFFFFFFFFFFFFFFFFFF6F
:10218000FFFFFFFFFFFFFFFFFFFFFFFFFFFFBEF7A8
:102190007DEF7DEF3BDFFAD679CE79CEFBDEB9CE8F
:1021A000C739C420718CBAD6718CCB5AB294BAD6C6
:1021B000FFFF7DEF7DEFFFFFFFFFB6B54629051955
:1021C00075A5FFFFFFFFFFFFFFFFFFFFFFFFFFFF03
:1021D000FFFFFFFFFFFFFFFFFFFFFFFFFFFFBEF758
:1021E0007DEF3CE7FBDEBAD679CEBAD6FCDE4E6395
:1021F00042080C63F7BDBEF7FFFFFBDEFBDEBEF758
:10220000FFFFFFFFFFFFFFFFFFFFFFFFF49C042125
:102210000521B6A5FFFFFFFFFFFFFFFFFFFFFFFF49
:10222000FFFFFFFFFFFFFFFFFFFFBEF7BEF77DEFE2
:102230003CE7FBDEBAD679CEFBDEBBD6D173831882
:102240008639349DBDEFFFFFFFFFFFFFFFFFFFFF5C
:10225000FFFFFFFFFFFFFFFFBEFF35D6EBCC43B311
:1022600040510519F58CBEEFFFFFFFFFFFFFFFFF99
:10227000FFFFFFFFFFFFBEF7BEF77DEF7DEF3CE7FF
:10228000FBDEBADEBAD63CDF3ABE4F63824940A3DA
:1022900023B4CC833ABEFFFFFFFFFFFFFFFFFFFF2A
:1022A000FFFFFFFFFFFFBFF7B5BD829220F4A0FC48
:1022B00060E4408284418F6B77AD3DE7FFFFFFFF15
:1022C000FEFFBEF7BEF7BEF77DEF7DEF3CE7FBDE1E
:1022D000FBDE3DE7BBCE369D0B6B416A60C420FE42
:1022E00060F5008BC76A38C6BEF7FFFFFFFFFFFF30
:1022F000FFFFFFFFFFFF7DEF4B7B80B2A0FCA0FC48
:10230000E0FCE0FCC0CBC18A45624D6BB394F7BDE5
:102310003DDFFFF7FFFFBEF77DEF7DEF7DE73DDFA0
:10232000BAC675A58D7B847A40B3E0ECE0FDE0FD94
:1023300060F520E5A0D40A6BFBDEFFFFFFFFFFFF87
:10234000FFFFFFFFFFFF7DEFCC9340EB60FCA0FCA5
:10235000E0FC20FD60FD20F5A0D4C0BB429B458B76
:102360006B9CAE9C718CB394339D34A5F2A4F0B4F5
:10237000CA9B049B40BB20E420FDA0FDA0FDE0FD26
:10238000E0FDE0FD20C4885A38BEFFFFFFFFFFFFDD
:10239000FFFFFFFFFFFFFFFF78D646AB40DB20F4D7
:1023A00060FCA0FCE0FC60FDA0FD60FD20F5A0DC71
:1023B000C0B3C05186290D638F7B0D5BC74101827D
:1023C00000C3C0E360FCA0FCE0FCE0FC60F560F54D
:1023D00020E5809B8662308479CEFFFFFFFFFFFF00
:1023E000FFFFFFFFFFFFFFFFFFFF38C62D9C059398
:1023F00043A382B3C2BBC2BB22B482A34293C37ABB
:1024000085620B637184B6B579CE79C6B5AD70942B
:102410004A8B06830493049B439B439B439304830F
:1024200008738D73B39479CE7DEFFFFFFFFFFFFF3D
:10243000FFFFFFFFFFFFFFFFFFFFFFFF3CDF38BE97
:1024400075B533A533A5F39CF39CF39CF394F39CEF
:1024500035A5F8BDFBDEBEF7FFFFFFFFFFFF7EEFF8
:10246000BBD6F8BDB6AD75AD34A5339D349D35A54D
:10247000B7AD79C63CE7BEF7FFFFFFFFFFFFFFFFE9
:10248000000000000000000000000000000000004C
:102490003F4000000000000000003000400030001D
:1024A0004000000009000BC03D000BC03D000900CA
:1024B00018C024407FE0224031800000180024C072
:1024C0001B000D803240018003801C4027401C808F
:1024D0000740004010006000000000000000000005
:1024E0000000000000001F8020404020000040202D
:1024F00020401F8000000000090006001F80060029
:1025000009000000040004003F80040004000000F3
:102510000010006000000000000000000400040043
:10252000040004000400000000000040000000005F
:1025300000000000002001C006003800400000003C
:102540001F802040204020401F80000000001040DD
:102550003FC000400000000018C02140224024403D
:102560001840000010802040244024401B800000C0
:1025700002000D0011003FC0014000003C802440DB
:1025800024402440238000001F8024402440344005
:10259000038000003000200027C038002000000029
:1025A0001B802440244024401B8000001C0022C0CB
:1025B000224022401F800000000000000840000070
:1025C00000000000000000000460000000000000A7
:1025D000000004000A0011002080404009000900AA
:1025E000090009000900000000004040208011009F
:1025F0000A000400180020002340240018000000F6
:102600001F802040274029401F400000004007C095
:1026100039000F0001C0004020403FC0244024404A
:102620001B8000001F8020402040204030800000A0
:1026300020403FC0204020401F80000020403FC07D
:1026400024402E4030C0000020403FC024402E00D7
:10265000300000000F001080204022403380020034
:1026600020403FC0040004003FC0204020402040E4
:102670003FC02040204000000060202020203FC0BC
:102680002000200020403FC024400B0030C02040EC
:1026900020403FC020400040004000C03FC03C0000
:1026A00003C03C003FC0000020403FC00C4023005E
:1026B0003FC020001F802040204020401F8000009D
:1026C00020403FC024402400180000001F8021400B
:1026D000214020E01FA0000020403FC024402600F1
:1026E00019C0004018C0244024402240318000001E
:1026F000300020403FC020403000000020003F80DC
:10270000004000403F80200020003E0001C0070044
:1027100038002000380007C03C0007C03800000027
:10272000204039C0060039C0204000002000384059
:1027300007C0384020000000304021C0264038400B
:1027400020C00000000000007FE04020402000008A
:10275000000070000C0003800040000000004020DA
:1027600040207FE00000000000002000400020002A
:1027700000000000001000100010001000100010F9
:102780000000000040000000000000000000028087
:102790000540054003C0004020003FC00440044005
:1027A0000380000000000380044004400640000055
:1027B00000000380044024403FC00040000003802C
:1027C0000540054003400000000004401FC02440B5
:1027D00024402000000002E005500550065004206F
:1027E00020403FC00440040003C0004000000440FB
:1027F00027C000400000000000100010041027E077
:102800000000000020403FC00140070004C0044019
:10281000204020403FC000400040000007C00400AE
:1028200007C0040003C00000044007C004400400C7
:1028300003C0004000000380044004400380000007
:10284000041007F0045004400380000000000380DF
:102850000440045007F00010044007C00240040088
:1028600004000000000006400540054004C00000D0
:10287000000004001F8004400040000004000780A6
:102880000040044007C000400400070004C001806D
:1028900006000400060001C0070001C00600000099
:1028A000044006C0010006C00440000004100710E8
:1028B00004E00180060004000000044005C006405A
:1028C000044000000000000004007BE04020000005
:1028D000000000000000FFF00000000000004020A9
:1028E0007BE0040000000000400080004000200069
:1028F0002000400000000000000000000000000078
:10290000000000000000000000001FCC000C0000D0
:1029100000000000000008003000600008003000E7
:1029200060000000022003FC1E20022003FC1E2089
:102930000220000000000E1811043FFF10840C78E4
:10294000000000000F0010840F3800C007781884C2
:102950000078000000780F8410C411240E9800E461
:1029600000840008080068007000000000000000FB
:102970000000000000000000000007E0181820041C
:1029800040020000000040022004181807E0000088
:10299000000000000240024001800FF00180024070
:1029A000024000000080008000800FF8008000805E
:1029B000008000000001000D000E0000000000007B
:1029C0000000000000000080008000800080008087
:1029D000008000800000000C000C000000000000DF
:1029E00000000000000000060018006001800600E2
:1029F00018002000000007F0080810041004080860
:102A000007F000000000080408041FFC0004000494
:102A10000000000000000E0C10141024104411845B
:102A20000E0C000000000C18100411041104128890
:102A30000C700000000000E00320042408241FFCA8
:102A40000024000000001F98108411041104108855
:102A500010700000000007F00888110411041888A5
:102A60000070000000001C00100010FC13001C008F
:102A70001000000000000E3811441084108411442E
:102A80000E38000000000700088C1044104408882D
:102A900007F00000000000000000030C030C000021
:102AA000000000000000000000010106000000001E
:102AB000000000000000008001400220041008080F
:102AC0001004000002200220022002200220022026
:102AD0000220000000001004080804100220014039
:102AE0000080000000000E001200100C106C10801E
:102AF0000F00000003E00C1813E4142417C4082886
:102B000007D000000004003C03C41C40074000E460
:102B1000001C000410041FFC1104110411040E8891
:102B20000070000003E00C181004100410041008DA
:102B30001C10000010041FFC1004100410040808EE
:102B400007F0000010041FFC1104110417C4100446
:102B50000818000010041FFC1104110017C0100019
:102B60000800000003E00C181004100410441C7846
:102B70000040000010041FFC1084008000801084BE
:102B80001FFC10040000100410041FFC10041004AB
:102B90000000000000030001100110011FFE1000E2
:102BA0001000000010041FFC110403801464181CA2
:102BB0001004000010041FFC1004000400040004B2
:102BC000000C000010041FFC1F0000FC1F001FFC75
:102BD0001004000010041FFC0C04030000E0101897
:102BE0001FFC100007F00808100410041004080867
:102BF00007F0000010041FFC10841080108010806B
:102C00000F00000007F0081810241024101C080AF8
:102C100007F2000010041FFC1104110011C0113054
:102C20000E0C000400000E1C1104108410841044CB
:102C30001C3800001800100010041FFC10041000C5
:102C40001800000010001FF8100400040004100415
:102C50001FF8100010001E0011E0001C007013800F
:102C60001C0010001FC0103C00E01F0000E0103CE2
:102C70001FC000001004180C163401C001C0163427
:102C8000180C100410001C00130400FC13041C009A
:102C9000100000000804101C1064108413041C04AD
:102CA000101800000000000000007FFE40024002FB
:102CB00040020000000030000C0003800060001C97
:102CC0000003000000004002400240027FFE0000BE
:102CD0000000000000000000200040004000400014
:102CE00020000000000100010001000100010001BE
:102CF0000001000100004000400020000000000032
:102D00000000000000000098012401440144014437
:102D100000FC000410001FFC00880104010400886E
:102D2000007000000000007000880104010401042C
:102D300000880000000000700088010401041108F0
:102D40001FFC0004000000F8014401440144014458
:102D500000C800000000010401040FFC110411046C
:102D600011001800000000D601290129012901C91C
:102D70000106000010041FFC008401000100010492
:102D800000FC000400000104190419FC0004000404
:102D9000000000000000000300010101190119FEFC
:102DA0000000000010041FFC0024004001B4010CCE
:102DB000010400000000100410041FFC00040004C3
:102DC00000000000010401FC0104010001FC0104F9
:102DD000010000FC010401FC008401000100010469
:102DE00000FC0004000000F80104010401040104D7
:102DF00000F80000010101FF0085010401040088C2
:102E0000007000000000007000880104010401054A
:102E100001FF00010104010401FC00840104010020
:102E200001800000000000CC0124012401240124C1
:102E30000198000000000100010007F801040104EE
:102E400000000000010001F8000400040004010873
:102E500001FC0004010001800170000C0010016001
:102E60000180010001F0010C003001C00030010CB4
:102E700001F0010000000104018C00740170018C5C
:102E800001040000010101810171000E00180160C0
:102E90000180010000000184010C0134014401841F
:102EA000010C0000000000000000000001003EFCDA
:102EB000400240020000000000000000FFFF000090
:102EC000000000000000400240023EFC0100000043
:102ED0000000000000006000800080004000400012
:102EE00020002000042F000000000010140000004B
:102EF000D40C0000182F0000140000104402000041
:102F0000E40C000000093D0000000000000000008B
:082F10000000000000000000B9
:04000005000000CD2A
:00000001FF
